:020000040800F2
:10000000C84D002029020008C50E0008A1060008FE
:10001000C10E000811050008A1150008000000002D
:100020000000000000000000000000009101000836
:100030007305000800000000D50100080D15000838
:10004000430200084302000843020008430200087C
:10005000430200084302000843020008430200086C
:10006000430200084302000843020008430200085C
:10007000430200084302000843020008430200084C
:10008000430200084302000843020008430200083C
:10009000430200084302000843020008430200082C
:1000A000430200084302000843020008430200081C
:1000B000430200084302000843020008430200080C
:1000C00043020008430200084302000843020008FC
:1000D00043020008430200084302000843020008EC
:1000E00043020008430200084302000800F002F83F
:1000F00000F03EF80AA090E8000C82448344AAF184
:100100000107DA4501D100F033F8AFF2090EBAE881
:100110000F0013F0010F18BFFB1A43F0010318473B
:10012000A03A0000C03A0000103A24BF78C878C155
:10013000FAD8520724BF30C830C144BF04680C60ED
:10014000704700000023002400250026103A28BF35
:1001500078C1FBD8520728BF30C148BF0B60704739
:100160001FB59DE8030000F0CDF81FBD10B510BD10
:1001700000F04CF91146FFF7F3FF01F059FC00F0D5
:100180006AF903B4FFF7F2FF03BC00F09BF900002B
:10019000224B19680868B0E8F00F80F30988BFF3B4
:1001A0006F8F4FF0000080F311884EF00D0E7047F6
:1001B0000000000006480068006880F3088862B606
:1001C00061B6BFF34F8FBFF36F8F00DF00BF00BF7B
:1001D00008ED00E0EFF30980BFF36F8F0F4B1A6853
:1001E00020E9F00F106008B54FF0BF0080F31188D0
:1001F000BFF34F8FBFF36F8F01F0B0FF4FF00000E0
:1002000080F31188BDE8084019680868B0E8F00F6D
:1002100080F30988BFF36F8F704700BF1400002080
:10022000EFF3058070470000094880470948004700
:10023000FEE7FEE7FEE7FEE7FEE7FEE7FEE7FEE796
:10024000FEE7FEE704480549054A064B70470000F3
:1002500041150008ED000008C8470020C84D0020E7
:10026000C8490020C849002070B5064600F02EF8A5
:10027000056806F10B0020F00704B4429CBF002083
:1002800070BD2B466A68BAB11068A04210D304F161
:10029000080188423CBF5068586007D35168101964
:1002A00041601168091B016058601460101D70BD29
:1002B00013465268002AE7D12146284600F00EF87E
:1002C0000028DED170BD7047704770470048704706
:1002D00070470020704770477047704738B5044634
:1002E0000A4600206946AFF30080002808BF38BDE9
:1002F00002460099204600F067F8012038BD012031
:1003000000F07CB8F8B5AFF30080054600200C463D
:10031000102000BF0646A819A0420DD932466946F2
:100320000020AFF30080070008BF00F067F80098D6
:10033000A04218BF0546C419FFF7C8FF056007466D
:10034000F01D20F007004619284600F00AF8B442D4
:1003500008BFF8BDA21B31463868BDE8F84000F080
:1003600033B800210160C0E90110704710207047C8
:1003700070B50446051FFFF7A9FF0068002C14BFE5
:10038000446870BD002C18BFAC423CBF2046646876
:10039000F8D301680A18AA4218BF456003D12A6839
:1003A00005461144016028684119A1421CBF6C60D8
:1003B00070BD6168696021680844286070BD0000F4
:1003C0000048704768470020034640688C46002874
:1003D00018BF88423CBF03464068F8D318681844E9
:1003E000884207D00CF1030020F00700001D411ADD
:1003F000521A0146081D0A60FFF7BABF10B500F097
:1004000039F8BDE8104000F02FB870477546FFF787
:10041000D7FFAE4605006946534620F007008546E3
:1004200018B020B5FFF70EFFBDE820404FF00006E2
:100430004FF000074FF000084FF0000B21F00701CC
:10044000AC46ACE8C009ACE8C009ACE8C009ACE80F
:10045000C0098D46704710B50446AFF300802046B2
:10046000BDE81040FFF78DBE002801D000F02AB88B
:100470007047000010B5012805D0002103A000F04E
:1004800027F8012010BD09A1F8E7000053494752A1
:10049000544D454D3A204F7574206F662068656154
:1004A00070206D656D6F7279000000003A2048651C
:1004B0006170206D656D6F727920636F72727570F7
:1004C0007465640001491820ABBEFEE726000200F7
:1004D00070B505460C460A2000E06D1C00F011F8CE
:1004E00035B128780028F8D102E0641C00F009F842
:1004F00014B120780028F8D1BDE870400A20AFF38D
:10050000008008B569468DF800000320ABBE08BD29
:1005100000BFFEE700B5034603E04FF47A7000F039
:1005200011F8181EA3F10103F7D100BD10B5044660
:1005300003E04FF47A70FFF7EDFF201EA4F10104F1
:10054000F7D110BD00EBC001C9004FF0E0225161AE
:10055000002191610521116100BF4FF0E02109697F
:1005600001F480310029F8D004214FF0E02211611C
:100570007047704710B50446204601F09BFD10BD42
:100580002DE9F0410246002500260020002300242A
:10059000002791F803C00CF00F0591F803C00CF090
:1005A000100CBCF1000F03D091F802C04CEA050515
:1005B00091F800C0BCF1000F31D0146800202BE08E
:1005C0004FF0010C0CFA00F3B1F800C00CEA03067E
:1005D0009E4220D183004FF00F0C0CFA03F7BC436E
:1005E00005FA03FC4CEA040491F803C0BCF1280F9F
:1005F00006D14FF0010C0CFA00FCC2F814C00AE05E
:1006000091F803C0BCF1480F05D14FF0010C0CFA72
:1006100000FCC2F810C0401C0828D1D31460B1F807
:1006200000C0BCF1FF0F34DD546800202EE000F163
:10063000080C4FF0010808FA0CF3B1F800C00CEAFE
:1006400003069E4221D183004FF00F0C0CFA03F7F2
:10065000BC4305FA03FC4CEA040491F803C0BCF166
:10066000280F05D100F1080C08FA0CF8C2F8148024
:1006700091F803C0BCF1480F07D100F1080C4FF00E
:10068000010808FA0CF8C2F81080401C0828CED3E4
:100690005460BDE8F0810AB1016100E0416170473A
:1006A00000BFFEE721B1028842F48062028004E0CC
:1006B00002884FF6FF331A400280704770B5024639
:1006C0000024002500230020958A138B1B0445EA93
:1006D000030626F07F4404EA01068E4201D1012080
:1006E00000E0002070BD21B1028842F001020280CA
:1006F00004E002884FF6FE731A400280704721B171
:10070000028842F48072028004E002884FF6FF63A0
:100710001A400280704721B1028842F400720280C0
:1007200004E002884FF6FF531A4002807047000031
:100730002DE9F04385B004460D460026B146042756
:10074000DFF8CC80A6884FF6C0700640684600F0FF
:10075000FFFDDDF808802F48B8FBF0F01FFA80F9A4
:1007600046EA0906A68020884FF6FE7108402080E0
:1007700000262949286888420CD828684000B8FB20
:10078000F0F087B2042F00DA04273E4309F101009C
:10079000208427E0E8884BF6FF71884206D128685C
:1007A00000EB4000B8FBF0F087B209E0286800EBEE
:1007B000C00101EB0010B8FBF0F087B247F48047AE
:1007C000C7F30B0008B947F0010747F400400643A0
:1007D0004FF4967009FB00F04FF47A7190FBF1F042
:1007E000401C2084A683208840F0010020802688B9
:1007F0004FF6F5300640A8886989084306432680ED
:10080000A88929890843208105B0BDE8F08300004C
:1008100000127A0040420F00A08601000146088ABB
:10082000C0B2704712B141F0010102E04FF6FE7311
:10083000194001827047018270472DE9F047044654
:100840000D4616461F463046E16802F083FD81469C
:10085000394602F077FC8046A16A02F0E3FAA06212
:10086000D4E9070102F0DEFA8246394602F06AFC5A
:1008700080462168A06902F0D5FA8146414602F01F
:1008800069FDA0613946606A02F05CFC8046E1695E
:1008900002F055FDE0613946606A02F053FC804683
:1008A000216A02F04CFD20626168606A02F0BAFAC7
:1008B0006062A168A06902F0B5FA80464146A0696D
:1008C00002F01EFB2061A168A06902F0ABFA80462D
:1008D0004146206A02F014FB60612846A16A02F0DA
:1008E00039FD8146216902F02DFC8046A16A02F0A3
:1008F00099FAA0622846A16A02F02CFD814661693E
:1009000002F020FC8046E16802F08CFAE060A16908
:10091000206902F017FC8046A16902F010FDA06179
:10092000E169206902F00EFC8046E16902F007FDF2
:10093000E061D4E9050102F005FC8046216A02F07D
:10094000FEFC2062E169606902F0FCFB8046616A9E
:1009500002F0F5FC6062A06ABDE8F08710B52C20BB
:10096000FFF782FC04460B4820600B4860604FF0A4
:100970007C50A0600020E060206160614FF07E50FC
:10098000A06100212162E161014661620020A06254
:10099000204610BD6F12833AA69B443B90B00020C6
:1009A00008908346FFF7DAFF0790FFF7D7FF06901E
:1009B000A3E009A80AA90BAB0CAACDE900100DA968
:1009C0000EA800F0AFF8BDF9300001F0E0FF0746D7
:1009D0008846BDF9380001F0DAFF3A464346CDE9D2
:1009E000000100F065FF454A454BCDE9020101F0E9
:1009F000F9FFCDE9040101F033FD0446BDF93000F3
:100A000001F0C5FF07468846BDF9340001F0BFFF7D
:100A10003A464346CDE9000100F04AFF374A384BD9
:100A2000CDE9020101F0DEFFCDE9040101F018FD7E
:100A30000546BDF9280002F025FB8046314902F049
:100A400081FB0746304902F05BFA8146BDF92C0074
:100A500002F018FB80462B4902F074FB07462A4936
:100A600002F04EFA824601F0D5FA01F0F1FB83461E
:100A70000899ABEB010002F01DFB039002F0A6F910
:100A8000224A234BCDE9040101F0ACFF074601F0F7
:100A9000E7FC20490860CDF820B008464A462146C8
:100AA00003680798FFF7C9FE1B49086019485246BA
:100AB000294603680698FFF7C0FE18490860BDF98B
:100AC000240002F0DFFA0F49049002F03BFB80465D
:100AD0000D4902F015FA07460E480168384602F043
:100AE00031FB3146059002F09DF906460C48066040
:100AF00001F0A2FA0520FFF73DFD5AE7CB67791E0A
:100B0000DCA54C400000FA4400FEFF46FCA9F1D2EF
:100B10004D62503F800000207400002078000020CB
:100B20007C0000202DE9F05F06460F46904699466E
:100B3000DDE90AAB3B2000F0F9F804463C2000F068
:100B4000F5F8054645EA042000B230803D2000F06B
:100B5000EDF804463E2000F0E9F8054645EA042099
:100B600000B238803F2000F0E1F80446402000F059
:100B7000DDF8054645EA042000B2A8F8000043204D
:100B800000F0D4F80446442000F0D0F8054645EAC9
:100B9000042014490988401A00B2A9F80000452031
:100BA00000F0C4F80446462000F0C0F8054645EAC7
:100BB00004200D490988401A00B2AAF80000472015
:100BC00000F0B4F80446482000F0B0F8054645EAC5
:100BD000042006490988401A00B2ABF80000BDE8BD
:100BE000F09F00006C0000206E00002070000020CC
:100BF00010B588B0002007900690059000240121D0
:100C0000880500F085FB0121082000F091FB1C20E5
:100C10008DF803004FF44060ADF8000003208DF81C
:100C2000020069463C48FFF7ABFC0020ADF8080025
:100C30004CF2503001904BF6FF70ADF80A004FF4C3
:100C40008060ADF80E000001ADF810000020ADF896
:100C50000C0001A93148FFF76BFD01212F48FFF778
:100C600042FD01216B2000F0BFF800216C2000F054
:100C7000BBF80921192000F0B7F806211A2000F06E
:100C8000B3F818211B2000F0AFF800211C2000F061
:100C9000ABF81E2000F0DAF800BF1DE005AA06A997
:100CA00007A800F0E5F81E480088BDF81C100844AD
:100CB00000B21B4908801B480088BDF81810084482
:100CC00000B21849088018480088BDF8141008447C
:100CD00000B215490880641C0A2CDFDB1048B0F90B
:100CE00000000A2190FBF1F000B20D4908800D4888
:100CF000B0F900000A2190FBF1F000B20949088028
:100D00000948B0F900000A2190FBF1F000B2064951
:100D1000088008B010BD0000000C014000580040E1
:100D20006C0000206E0000207000002070B50446AA
:100D300001212148FFF7E3FC20491F4800F042F859
:100D40000022D0211C48FFF76DFD1D491A4800F014
:100D500039F821461848FFF76EFD1949891C1648D5
:100D600000F030F801211448FFF7C9FC134912487C
:100D700000F028F80122D0210F48FFF753FD0F495A
:100D8000491C0D4800F01EF800210B48FFF78AFCB3
:100D900001210948FFF7BFFC08493F31064800F030
:100DA00011F80548FFF73AFD054601210248FFF713
:100DB00079FC284670BD0000005800400100030087
:100DC0008200070070B505460E4642F2107402E03C
:100DD000641E04B905E031462846FFF76FFC012880
:100DE000F6D100BF70BD000070B504460D4601216C
:100DF0001348FFF784FC13491148FFF7E3FF002273
:100E0000D0210F48FFF70EFD0F490D48FFF7DAFF1D
:100E100021460B48FFF70FFD0B49891E0848FFF7D5
:100E2000D1FF29460648FFF706FD0749891C0448FB
:100E3000FFF7C8FF01210248FFF76DFC70BD0000FD
:100E400000580040010003008200070008B500BF01
:100E5000064A42430092002101E000BF491C40F2D3
:100E600065424243B1EB821FF7D308BD4019010030
:100E70002DE9F04104460D4616464420FFF756FF83
:100E800007464320FFF752FF47EA002000B22080C8
:100E90004620FFF74BFF07464520FFF747FF47EA8D
:100EA000002000B228804820FFF740FF0746472077
:100EB000FFF73CFF47EA002000B23080BDE8F08138
:100EC00000BFFEE7704700001AA20121084600F0AB
:100ED000EEF919A20121022000F0E9F918A201217E
:100EE000032000F0E4F918A20121042000F0DFF94A
:100EF0001EE00323164808210268012000F054F97F
:100F00000323144808210268022000F04DF903234E
:100F1000114808210268184600F046F903230F48DB
:100F200008210268042000F03FF90020FFF722FBAF
:100F3000DFE7000064743A0070697463683A000087
:100F4000726F6C6C3A0000007961773A0000000023
:100F50008000002074000020780000207C00002029
:100F600070B500240EE00021204600F0D1F80025E5
:100F700004E0002000F0BEF9681CC5B2802DF8DB4B
:100F8000601CC4B2082CEEDB70BD70B5002406E016
:100F9000002500E06D1CB5F57A7FFBD3641CB4F529
:100FA0007A7FF5D300F052F8AE2000F095F9D52005
:100FB00000F092F9802000F08FF9A82000F08CF961
:100FC0003F2000F089F9D32000F086F9002000F0DE
:100FD00083F9402000F080F9A12000F07DF9C820BD
:100FE00000F07AF9DA2000F077F9122000F074F9B5
:100FF000812000F071F9CF2000F06EF9D92000F0C7
:101000006BF9F12000F068F9DB2000F065F9302081
:1010100000F062F9A42000F05FF9A62000F05CF96E
:101020008D2000F059F9142000F056F9AF2000F09F
:1010300053F9FFF795FF70BD10B50246012000E09F
:1010400050430B1EA1F10101FAD110BD08B50121D9
:10105000082000F06DF910208DF8030003208DF8B2
:1010600002004FF48050ADF8000069461748FFF7C2
:1010700087FA4FF40050ADF8000069461348FFF7B7
:101080007FFA4FF48040ADF8000069460F48FFF743
:1010900077FA4FF40040ADF8000069460B48FFF7BF
:1010A0006FFA012211030948FFF7F5FA01225103F3
:1010B0000648FFF7F0FA012291030448FFF7EBFA24
:1010C0000122D1030148FFF7E6FA08BD000C0140F8
:1010D00070B50546002415E000224FF480510B48FE
:1010E000FFF7D9FA8020204100EA05024FF40051B1
:1010F0000648FFF7D0FA012211030448FFF7CBFAA4
:10110000601CC4B2082CE7DB70BD0000000C01407D
:1011100070B505460C4645F0B00000F0DDF8102132
:1011200041EA141000F0D8F804F00F01881C00F018
:10113000D3F870BD2DE9F04105460E461746721EE4
:10114000D206110E6A1E5206100EFFF7E1FF0024B0
:1011500009E0A7F12001134A02EB0111085D00F03C
:10116000C9F8601CC4B2082CF3DB721ED206110E43
:101170006A1E012303EB4202D0B2FFF7C9FF00242D
:101180000BE0A7F12001074A02EB011204F108016C
:10119000505C00F0AFF8601CC4B2082CF1DBBDE875
:1011A000F08100002E3500082DE9F04F89B083460C
:1011B0000E46924699460021504602F08FF80AD812
:1011C0002B2231465846FFF7B5FF504601F0FEFD91
:1011D00004460D460BE02D2231465846FFF7AAFF84
:1011E0008AF00047384601F0F1FD04460D462046DE
:1011F000294601F06FFB0746701CC1B24B463A46C8
:10120000584600F032F8701C4844C1B22E225846AD
:10121000FFF790FF49460A20FFF70EFF039001F009
:10122000CDFBCDE904012046294601F053FB019096
:1012300001F0ADFB22462B46CDE9020101F0D0FCC6
:101240000746DDE9042301F0CDFBCDE9060101F0FD
:1012500071FB0890B01C4844C1B24B465846089AEE
:1012600000F003F809B0BDE8F08F2DE9F0478046A3
:101270000E4617461D46002415E0281B411E0A2075
:10128000FFF7DAFEB7FBF0F00A21B0FBF1F201FB49
:10129000120000F130093019C1B24A464046FFF74A
:1012A00049FF601CC4B2AC42E7DBBDE8F0872DE922
:1012B000F04107460E461546002407E02A5D301926
:1012C000C1B23846FFF736FF601CC4B2285D002863
:1012D000F4D1BDE8F081000010B5044600224FF4BF
:1012E00000410348FFF7D7F92046FFF7F1FE10BD94
:1012F000000C014010B504460122D1030348FFF75A
:10130000CAF92046FFF7E4FE10BD0000000C0140C2
:1013100029B1064AD2690243044BDA6104E0034A68
:10132000D2698243014BDA6170470000001002402D
:1013300029B1064A92690243044B9A6104E0034AC8
:1013400092698243014B9A6170470000001002408D
:1013500030B500210022002400232D4D6D6805F0DA
:101360000C0121B1042905D0082923D105E0294D1C
:10137000056022E0274D05601FE0254D6D6805F4EE
:101380007012234D6D6805F48034022505EB9242FE
:101390001CB9214D554305600BE01D4D6D6805F4EA
:1013A00000351DB11C4D5543056002E0194D5543F4
:1013B000056002E0174D056000BF00BF144D6D6869
:1013C00005F0F0010909154D6B5C0568DD404560CD
:1013D0000F4D6D6805F4E061090A104D6B5C4568BE
:1013E000DD4085600A4D6D6805F46051C90A0B4DFA
:1013F0006B5C4568DD40C560054D6D6805F4404196
:10140000890B074D6B5CC568B5FBF3F5056130BD15
:101410000010024000127A0000093D000000002088
:101420001000002010B500F001F810BD0CB5002030
:10143000019000903348006840F4803031490860E2
:1014400000BF3048006800F4003000900198401C54
:101450000190009818B90198B0F5A06FF1D1294812
:10146000006800F4003010B10120009001E000207D
:1014700000900098012843D12348006840F01000F4
:10148000214908600846006820F00300086008460B
:10149000006840F0020008601A4840681949486036
:1014A0000846406848600846406840F480604860EC
:1014B0000846406820F47C1048600846406840F4C4
:1014C000E81048600846006840F08070086000BF7F
:1014D0000C48006800F000700028F9D00948406806
:1014E00020F00300074948600846406840F00200C9
:1014F000486000BF0348406800F00C000828F9D19C
:101500000CBD0000001002400020024010B500BFDA
:10151000BF2080F31188BFF34F8FBFF36F8F00BFE1
:1015200000F09CFE18B14FF080500449086000BFE5
:10153000002080F3118800BF10BD000004ED00E022
:1015400010B51348006840F00100114908600846D2
:101550004068104908400E494860084600680E4936
:1015600008400B4908600846006820F480200860A5
:101570000846406820F4FE0048604FF41F00886071
:10158000FFF750FF4FF000600449086010BD0000F5
:10159000001002400000FFF8FFFFF6FE08ED00E03B
:1015A00000BFFEE7490050EAC12018BF04204A0DE1
:1015B00018BF40F0010040F2FF72B2EB515F08BF6C
:1015C00040F00200012808BF052070472DE9F041D6
:1015D0004F1E00EBC7010446D1E9000115461E4627
:1015E00037F006020DD02A46334601F0FBF97F1E84
:1015F00004EBC703D3E9002300F064FF37F00602D1
:10160000F1D1022F25D0042F13D0062F18BFBDE82B
:10161000F0812A46334601F0E5F9D4E90A2300F0C7
:1016200051FF2A46334601F0DDF9D4E9082300F0E2
:1016300049FF2A46334601F0D5F9D4E9062300F0E4
:1016400041FF2A46334601F0CDF9D4E9042300F0E6
:1016500039FF2A46334601F0C5F9D4E9022300F0E8
:1016600031FF2A46334601F0BDF9D4E90023BDE835
:10167000F04100F027BF012201F013BF00F022BFAC
:10168000024A0020110701F00CBF000001FDFFFF1E
:101690002DE9F84F04460D4621F0004000917349B2
:1016A000814211DC7249884201DC06D12CB120460E
:1016B0002946BDE8F84FFFF7DEBF6E48002DCCBFCE
:1016C0006D496E49BDE8F88F6D49814211DD6D4964
:1016D0008142D8BF4FF0FF366DDD20462946FFF727
:1016E00061FF042808BFFFF7CBFF20462946BDE86D
:1016F000F88F6549654F25F00045814233DD644927
:10170000814219DD002632464FF0804320462946AB
:1017100000F0D8FE80468A4601222046294601F084
:10172000C0FE00223B4601F067FA4246534600F0F5
:1017300079FF04460D463EE001260022BA463B46AC
:101740002046294600F0BEFE80460F460022534642
:101750002046294601F050FA42463B4600F062FF1F
:1017600004460D4627E04B4981421BDDDFF828A1E6
:101770000226002253462046294601F033F9002272
:101780003B4600F09FFE80460F460022534620460F
:10179000294601F031FA42463B4600F043FF044639
:1017A0000D4608E0032622462B4600203B4900F068
:1017B00039FF04460D4622462B461046194601F0D5
:1017C00011F98B46824602460B4601F00BF907469B
:1017D0000246334888460B4606217844FFF7F6FE5A
:1017E00052465B4601F0FEF882462E488B463A464A
:1017F000434605217844FFF7E9FE3A46434601F0A7
:10180000F1F802460B46002E504659460CDA00F01D
:1018100059FE22462B4601F0E5F801B022462B4640
:10182000BDE8F04F01F0DCB900F04CFE22462B463B
:1018300001F0D8F81C4A7A4402EBC603D3E900232E
:1018400001F0DAF922462B4601F0D6F9174A7A441C
:1018500002EBC603D3E9002301F0C2F9009A002A83
:10186000B8BF81F00041BDE8F88F000000001044CF
:101870000000F07F182D4454FB21F93FFB21F9BFF4
:101880000000DC3F0000203E0000F33F0000F03F7E
:101890000000E63F008003400000F83F0000F0BF7A
:1018A000AA2300006823000006230000CE220000C7
:1018B0002DE9F04D9446CCF1000423F000464CEAAB
:1018C0000404524F46EAD4749A46884621F00042F6
:1018D000BC4206D8454240EA050442EAD474BC4200
:1018E00004D9BDE8F04D6246FFF7C8BEAAF14055E5
:1018F000A5F17F6555EA0C040BD0022404EAAA7412
:10190000434DDFF810E144EAD87452EA000B04D0EA
:101910000CE0BDE8F04DFFF7BBBE002C14BF012C5E
:10192000BDE8F08D022C30D0032C32D056EA0C0BDF
:101930000AD0BE4220D1BA4209D126F0804622F018
:1019400080423346114617E000291ADB25E0DFF814
:10195000C8B0FB44002C04BFDBE90001BDE8F08DFA
:10196000012C02BFDBE9000181F00041BDE8F08DF0
:10197000022C0AD0032C0CD0BA4212D1B8F1000FBD
:101980000BDA23482549BDE8F08D28462449BDE8F7
:10199000F08D28467146BDE8F08D1D482149BDE80F
:1019A000F08D921B12153C2AC4BF19481D490EDC4C
:1019B000BAF1000FBEBF12F13C0F0020014606DB5A
:1019C000624600F02FFE21F00041FFF761FE002C7F
:1019D00008BFBDE8F08D012C04BF81F00041BDE8D7
:1019E000F08D114A114B022C07D001F005F92A465F
:1019F000BDE8F04D0A4B01F0FFB801F0FDF82A46B2
:101A0000BDE8F04D064B01F0EBB800000000F07FA0
:101A1000182D4454FB2109C062220000FB21F9BFAC
:101A2000FB210940FB21F93F075C143326A6A13CAA
:101A30001CB5FFF7AAFAFFF7DBF80120FEF776FDE9
:101A40000020022103468A02CDE9001008A10A48BD
:101A500000F0CEFB0020012103460A02CDE9001070
:101A600006A1084800F0C4FB00F03EFB00201CBDAE
:101A70004D505536303530009D0900084F4C4544D7
:101A800000000000C90E00082DE9F04105460E4691
:101A90001C4807681C480068001D00F071FA50B926
:101AA0001948006890F82C100120884017490968EF
:101AB000814316480160681C38B936B11248016884
:101AC000091D134800F09AFA1AE07C190E480068C4
:101AD0004460BC4207D20C480168091D0D480068EB
:101AE00000F072FA0CE008480168091D0A48006815
:101AF00000F06AFA09480068844201D2074804608D
:101B0000BDE8F08128000020140000202C000020F7
:101B1000540300201C000020180000204400002076
:101B200010B5044600F076FA23480068401C2249AC
:101B300008602248006840B92048046008460068F0
:101B400001280DD100F014F90AE01D48006838B9E9
:101B50001A480068C06AE16A884201D817480460E0
:101B600018480068401C1749086094F82C100120A0
:101B7000884015490968084313490860E16A01EB88
:101B80008101124A02EB8100211D00F037FA00F0BA
:101B900053FA0B48006868B108480068C06AE16AF7
:101BA000884207D24FF0805009490860BFF34F8F39
:101BB000BFF36F8F10BD0000240000201400002030
:101BC00030000020400000202C0000208400002075
:101BD00004ED00E070B523E000F0B8FA13480068A7
:101BE00008B9012000E00020054600F0C5FBBDB9A2
:101BF00000F010FA0D48C068C468201D00F0C0F95C
:101C00000B480068401E0A4908600A480068401EE8
:101C10000849086000F010FA204600F00DF800BFF7
:101C2000044800680028D7D170BD000040030020A0
:101C3000240000202000002010B50446206B00F096
:101C40000BFA204600F008FA10BD000030B54FF442
:101C50008843174800F007042CB1C01D20F007008E
:101C6000134C041B1B1B0246124C22600024114D16
:101C70006C60D018083820F007000F4C206000245A
:101C80000D4D2D686C600C4D2D682C601146441A6A
:101C90004C60094C24680C60084D4C682C60084D61
:101CA0004C682C604FF00044064D2C6030BD0000A5
:101CB00068030020540000205C0000206400002025
:101CC000600000206800002000BFFFF783FF064887
:101CD00000680128F9D94FF0805004490860BFF32B
:101CE0004F8FBFF36F8FF0E78400002004ED00E01A
:101CF0002DE9FF5F80460E469146DDE90E7A109C85
:101D0000A9F10100216B01EB800B2BF0070B0025E3
:101D100007E0715D04F134004155705D00B902E0E7
:101D20006D1C102DF5D300BF002143200155202F3D
:101D300000D31F27E762201D00F043F904F11800CB
:101D400000F03FF92461C7F12000A0616462002027
:101D5000606484F8480041465846039A00F0FEF853
:101D60002060BAF1000F01D0CAF80040BDE8FF9F23
:101D700010B5002407E004EB84010F4A02EB810058
:101D800000F012F9641C202CF5D30C4800F00CF97B
:101D90000B4800F009F90B4800F006F90A4800F07A
:101DA00003F90A4800F000F90448094908600448AA
:101DB0000849086010BD00008400002004030020D2
:101DC000180300202C0300204003002054030020AF
:101DD000180000201C00002010B50146164800E045
:101DE000006803688B42FBD30246436813448B426E
:101DF00004D143684C682344436001460A464B685B
:101E000013440468A34211D10C4C03682468A34214
:101E100008D04B680468646823444B6003681B68FF
:101E20000B6005E0054B1B680B6001E003680B606D
:101E3000884200D0016010BD540000205C000020EA
:101E40000A490968096809B9012100E0002121B1A6
:101E50004FF0FF31064A116006E004490968C9687D
:101E6000C868034A416811607047000018000020EC
:101E70004400002000BFBF2080F31188BFF34F8FC4
:101E8000BFF36F8F00BF00BFFEE700002DE9F041F8
:101E900005464FF0000800F059F92B48006808B9D2
:101EA000FFF7D4FE294800682840002847D145B1F3
:101EB000083505F0070020B105F00700C0F1080063
:101EC0000544002D3BD022480068854237D8214E7A
:101ED0003046046801E0264624686068A84202D2C1
:101EE00020680028F7D118480068844227D030685D
:101EF00000F10808206830606068401B102807D98E
:101F000067196068401B786065603846FFF764FFBA
:101F10000F4960680968081A0D490860084600689A
:101F20000D490968884203D2094800680A490860D7
:101F3000064960680968084360600020206000F07E
:101F40001BFA4046BDE8F0815C00002068000020DC
:101F5000600000205400002064000020001F4FF0AB
:101F600080730360001F21F001030360001F034B17
:101F7000036014380260203870470000751E0008A6
:101F800001460A69D1E901309860D1E9010358603E
:101F90005068884201D1886850600020086110684C
:101FA000401E10601068704700F1080141604FF05A
:101FB000FF31816000F10801C16001610021016011
:101FC000704700210161704710B502460B685C1C28
:101FD0000CB9106907E002F1080000E040684468AD
:101FE00024689C42FAD944684C604C68A1608860BF
:101FF00041600A611468641C146010BD42684A6044
:1020000093688B60936859609160086103685B1CFA
:102010000360704700BFBF2080F31188BFF34F8F6C
:10202000BFF36F8F00BF03480068401C0149086080
:10203000704700005000002006480068401E054917
:1020400008600846006820B9002080F3118800BFAE
:1020500000BF70475000002070B506463546D6B127
:10206000083D2C460C4960680968084098B1206812
:1020700088B90949606809688843606000F066F8BB
:102080000649606809680844044908602046FFF76B
:10209000A3FE00F071F970BD680000206000002010
:1020A00003484FF0E02148610720086170470000B5
:1020B0003F19010070B50446002544B100F046F810
:1020C00000212046FFF7E0FC00F056F905463DB937
:1020D0004FF0805003490860BFF34F8FBFF36F8FFD
:1020E00070BD000004ED00E01CB5114800210B4656
:1020F0008022CDE900100FA1104800F079F80446C5
:10210000012C14D100BFBF2080F31188BFF34F8F83
:10211000BFF36F8F00BF4FF0FF3009490860012007
:102120000849086000200849086000F047F81CBD15
:102130004800002049444C4500000000C91C00082C
:1021400044000020300000202800002002480068E1
:10215000401C0149086070474C000020124800688C
:1021600018B10120114908601DE000200F490860E6
:102170000F480068B0FA80F0C0F11F0101EB810246
:102180000C4B03EB820042685268426000F1080287
:102190004368934202D14268526842604268D26802
:1021A000054B1A6000BF70474C000020380000202B
:1021B0002C000020840000201400002010B50A48E4
:1021C000006840F47F00084908600846006840F055
:1021D0007F400860FFF764FF002004490860FDF7B6
:1021E000E9FF002010BD000020ED00E050000020BD
:1021F0002DE9FF4F85B0804689461746DDE912ABD1
:10220000B800FFF743FE064656B14C20FFF73EFEEE
:1022100004460CB1266304E03046FFF71DFF00E0E2
:1022200000247CB10020CDE900ABCDE902403A4664
:1022300049464046089BFFF75BFD2046FFF770FCD0
:10224000012501E04FF0FF35284609B0BDE8F08FC9
:102250000149086870470000280000202DE9F0417E
:1022600000273A480068002863D139480068451CB7
:10227000374805608DB93748D0F800803648006887
:10228000344908603448C0F8008034480068401C75
:1022900032490860FFF7D4FD00BF3148006885422D
:1022A0003BD300BF2B480068006808B9012000E05C
:1022B000002020B14FF0FF30294908602CE025486C
:1022C0000068C068C4686668B54202D224480660E7
:1022D00022E0201DFFF754FEA06A18B104F1180097
:1022E000FFF74EFE94F82C10012088401D49096824
:1022F00008431C490860E16A01EB81011A4A02EBBC
:102300008100211DFFF77AFE1849E06A0968C96A51
:102310008842C7D30127C5E700BF14480068C06AD8
:1023200000EB8000104951F82000012800D9012756
:1023300004E00F480068401C0D4908600D48006823
:1023400000B101273846BDE8F08100004C000020B4
:1023500028000020180000201C0000203C00002065
:10236000440000202C0000208400002014000020E5
:10237000340000203800002070B500240026FFF74C
:1023800049FE2E480068401E2C4908600846006837
:1023900000284FD12A48006800284BD024E0294863
:1023A000C068C46804F11800FFF7EAFD201DFFF7BC
:1023B000E7FD94F82C100120884023490968084360
:1023C00021490860E16A01EB8101204A02EB8100AA
:1023D000211DFFF713FE1E49E06A0968C96A884299
:1023E00002D301201B4908601648006808B9012083
:1023F00000E000200028D2D00CB1FFF721FD1648E4
:10240000056865B100BFFFF729FF10B10120114930
:1024100008606D1E002DF6D100200F4908600D48A0
:10242000006838B1012630070C490860BFF34F8FB0
:10243000BFF36F8FFFF700FE304670BD4C000020E9
:10244000240000202C0300202C0000208400002009
:1024500014000020380000203400002004ED00E0CB
:1024600021F00042A2F16052B2F5801F01F000435A
:1024700028BFD2F17F6C0BD95FEA001C43EAC2028D
:1024800042EB507018BF704728BF20F00100704722
:10249000B2F5801FBCBF184670474FEA410C1CF5CF
:1024A000001F02D2084600F014BF70B500F044FBD4
:1024B00000000089FFF7F6BF4FF00040A0F5800054
:1024C0007047000010B591EA030F48BF83F0004346
:1024D00000F19A83841A71EB030C05D2121943EBB5
:1024E0000C03001B61EB0C01DFF824E14FEA1154EF
:1024F000A4EB135C1EEA430F18BF9EEA445F73D03F
:1025000023EA0E03DCF1200E21EA045143F4801388
:1025100032D322FA0CFE10EB0E0023FA0CFE41EB34
:102520000E01CCF1200E03FA0EFE10EB0E0051F15D
:102530000001B1F5801FCCF1200E32D201EB045125
:1025400012FA0EF2BDE8104058BF7047401C38BF69
:102550005FEA420218BF7047002814BF20F0010054
:1025600041F100014FEA410313F5001F38BF7047E6
:10257000A1F1C04100F02EBB012A43EB0302ACF1F4
:10258000200CDCF11F0E32BF4FF0000E23FA0CF3CB
:1025900010EB030041EB0451B4EB115FD0D0A1EB81
:1025A000045101F5801149085FEA300001EB045144
:1025B0000ED350F1000038BF12FA0EFE08D1BDE86C
:1025C0001040C9E7401C38BF5FEA4202CAD1C3E7E6
:1025D000BDE810404FEA410313F5001F38BF7047B4
:1025E000A1F1C04100F0F6BA9EEA445F08D011EABA
:1025F0005E0FBDE8104004BF01F0004100207047AD
:10260000BDE8104070B500F097FA00BF64FBBE3E15
:102610000000E0FF02494FF0000000F010BF00BFD3
:102620000000F87F2DE9C04130B4DFF8A0C23CEAD9
:10263000111418BF3CEA131400F0EC8081EA030582
:102640001CEA111444EAD57418BF1CEA131500F0F3
:10265000C780A4EB05044FF0004545EAC12145EAD7
:10266000C32341EA505143EA525304F17F74994223
:1026700004F500344FEAC0204FEAC22208BF90425E
:1026800000F09C804FEA13650FF24016765D4FEA2A
:10269000134506FB05F7C7F1807706FB07F74FEAFE
:1026A000D737A7FB03687642C8F58038A7FB06CE6C
:1026B00038BFA8F1010807FB08E64FF0000EA6FBA3
:1026C000028CE6FB03CEDCF1000CCEF1004E38BFED
:1026D000AEF1010EA6FB0C584FF000074FF00005BD
:1026E000E6FB0E87A1FB08C6A0FB07CE16EB0E0685
:1026F00045F10005E1FB076515F1E04E7EBFA4F54D
:1027000080345FEA46066D4116F1800745F1000509
:102710004FEA17274FEA066647EA0567A6F1DE4645
:10272000B6F1805F4FEA15251FD9384624F0010C19
:1027300005EBC471BCF1FE6F01EB0C1102D8F0BCCB
:10274000BDE8008124425CBF01F5801E9EEAC47F83
:1027500002D4F0BCBDE80081244238D4F0BCA1F121
:10276000C041BDE8004100F035BA4FEAD22242EA4A
:1027700043524FEAD323A7FB02864FEAD02040EA18
:10278000415007FB03661EEA0E0F4FEAD12105FBFD
:10279000026658BFA6EB0056B6EB00564FEA520E43
:1027A0004EEAC37E18EB0E0E56EB530EBDD518EB5A
:1027B00002085E417F1C55F10005B6E74FF4801515
:1027C0004FF000074FF000064FF00008ADE7F0BCF7
:1027D0004FF0000001F1C04101F00041BDE800816F
:1027E00011EA0C1F0CEA131500D00CE013EA0C1FC1
:1027F00000F025804FF00000F0BC81EA030101F0F9
:102800000041BDE80081F0BCBDE8004181EA030160
:1028100000F0E0B9F0BCBDE8004170B500F08CF903
:10282000097EFC3E00F007B881EA03014FF000008A
:1028300001F00041704781EA030100F0CBB9F0BC20
:10284000BDE800414FF0000021497047FFFDFBF952
:10285000F7F5F4F2F0EEEDEBE9E8E6E4E3E1E0DED3
:10286000DDDBDAD8D7D5D4D3D1D0CFCDCCCBCAC845
:10287000C7C6C5C4C2C1C0BFBEBDBCBBBAB9B8B76C
:10288000B6B5B4B3B2B1B0AFAEADACABAAA9A8A85F
:10289000A7A6A5A4A3A3A2A1A09F9F9E9D9C9C9B2D
:1028A0009A999998979796959594939392919190D8
:1028B0008F8F8E8E8D8C8C8B8B8A89898888878769
:1028C0008685858484838382828181800000FF07DE
:1028D0000000F87F4FEA41034FEA5353A3F58063AA
:1028E000D3F11E03C8BFD3F1210C0CDD4FF0004221
:1028F00042EAC12242EA505232FA03FC8CEAE17CFD
:10290000ACEBE1707047102BC4BF0020704703F59B
:10291000787CBCF1FF3F04D06FF0004282EA2100D6
:10292000704770B500F008F9499224800020704784
:10293000F2E700004FEA1153A3F58063D3F11E03C1
:10294000A8BFD3F1200C08DB4FF0004242EAC122BD
:1029500052EA505232FA03F0704709420BD4102B5E
:10296000C4BF0020704703F5787CBCF1FF3F05D061
:102970004FF0FF3070474FF00000704770B500F027
:10298000DBF800BF4992248000207047F0E710F088
:10299000004248BF4042B0FA80F310FA03F10AD077
:1029A000C3F11D0303F580634FEA415002EB03526C
:1029B00002EBD12170474FF000007047B0FA80F36E
:1029C00010FA03F10AD0C3F11D0303F580634FEA47
:1029D00041504FEA035202EBD12170474FF0000003
:1029E00070470000DFF848C170B51CEA111E1EBF19
:1029F0001CEA13159EEA0C0F95EA0C0F00F06F808D
:102A000081EA030423EA4C134EEAD47E21EA4C11F6
:102A100041F4801143F48013AE44A1FB024CA0FBAF
:102A20000365AEF17F7E361955EB0C05A1FB034C17
:102A30004CF10003A0FB021C16EB0C06654153F1A0
:102A40000003094218BF46F0010613F4007F0BD1C2
:102A50004FEA03314FEA0530340341EA155140EAA9
:102A600016506FF003020AE04FEAC3214FEAC52077
:102A7000F40241EA555140EA56506FF0020202EB6F
:102A80002E4201EB025585EACE710AD05FEA440C72
:102A900018BF24F0004450F1000041F1000120EA89
:102AA000D47040F2FE7C624500D270BDA84214BFD3
:102AB0004FF080444FF04044002E08BF0024BEF188
:102AC000806FA8BFA1F1C041BDE8704080F2828054
:102AD0004FF0000001F1C04101F0004170479EEA53
:102AE0000C0F0CEA131518BF95EA0C0F06D04FF027
:102AF000000081EA030E0EF0004170BD00F01CF8EA
:102B00008900013E00F007B800F009B84FEA430C15
:102B10005FEA5C5C08D081EA030100F05BB84FEA31
:102B2000410C5FEA5C5CF6D14FF000000149704750
:102B30000000FF070000F87F0EF1020E2EF0030EDA
:102B40005EF8046B364205D4012A43EB030515F504
:102B5000001F12D8012841EB010C1CF5001F0CD8F6
:102B60000ED14FEAD17C15F5001F0CEB4C0C0CF18B
:102B7000020C08BF4CEBD37C04E04FF0080C01E0E2
:102B80004FEAD37C0CEB4C0526FA05F606F0070657
:102B9000B6F1040C06D20EEB860CBDE870404CF08A
:102BA000010C6047DFE80CF0090B02024FF0004116
:102BB0004FF00000A1F5002170BD19461046012814
:102BC00051EB010418BFD4F5001484BF002001F0BC
:102BD000004170BD0808A0F500114FEA31017047AF
:102BE00091EA030F10B581F000413FF573AC83F01B
:102BF000004300F009B8000010B591EA030F48BF88
:102C000083F000433FF566AC841A71EB030C07D2E6
:102C100012198CF0004C43EB0C03001B61EB0C0110
:102C2000DFF8A4E14FEA1154A4EB135C1EEA430F52
:102C300018BF9EEA445F00F0B08023EA6E03524260
:102C400021EA0451C3EB6E0338BF5B1EDCF1200E9A
:102C500025D322FA0CFE10EB0E0043FA0CFE41EBDA
:102C60000E01CCF1200E03FA0EFE10EB0E0051F116
:102C70000001CCF1200E29D412FA0EF201EB04511E
:102C8000BDE8104058BF7047401C1CBFB2F1004F58
:102C9000704700280CBF491C20F00100704712EB60
:102CA000020E43EB030218BF4FF0010E4EEA420240
:102CB000ACF1200CDCF11E0E54D943FA0CFE10EBE3
:102CC0000E0051F1FF31CCF11E0ED5D50EF1010EE3
:102CD00012FA0EFE404141EB010101EB445C5FEA58
:102CE0005C5C10D910EBDE7001EB045138BFBEF113
:102CF000004FBDE8104018BF704700280CBF491CAA
:102D000020F00100704730D24FEAD42C11F50011A9
:102D100024F400641BD0B1FA81F20B3AA41AA41E69
:102D2000D2F12003914030FA03F31943904001EBB4
:102D3000CC71002C01EB0451BDE81040A8BF7047D6
:102D400001F1C0414FF0000001F000417047B0FABE
:102D500080F310FA03F100D110BDE41A173C4805C6
:102D6000C90AE4E701EB045110BD491001EB04511D
:102D7000BDE810404FEA300002E04FF0000170471C
:102D80004A0008BF0042F8D0B2F5001F28BF7047C4
:102D900001F000414FF0000070479EEA445F07D009
:102DA00011EA5E0FBDE8104004BF0021002070470B
:102DB000BDE8104070B5FFF7BFFE00BF40DFF63E34
:102DC00083F00041104670470000E0FF43004FEAE7
:102DD000D30C4FEA3C0C43401FBF40070CF160513D
:102DE00013F0FE4F70471CF0006F03D100200CF071
:102DF000004170470CF0004343EA507010B540EAC0
:102E0000CC0000F020FA00BF000000924FEA000161
:102E1000FFF7E0BE4FF000414FF00000A1F50021A8
:102E20007047000090EA010F48BF81F0004100F1B7
:102E30009882421A3CBF801A89184FEAD0524FF04C
:102E40007F4C1CEA410FA2EBD15318BF9CEA026FE2
:102E500000F03B804FF0004C4CEA00204CEA01218E
:102E600021FA03FC10EB0C0C1ED202F1FF325FEAD8
:102E70001C2040EBC25038BF70471CF07F0F4FEA58
:102E8000400C18BFBCF17F4F38BF7047C3F120031F
:102E9000994008BF20F00100BCF17F4F38BF704758
:102EA000A0F1C04000F015BA4FEA3C00000A40EB28
:102EB000C25028BF1CF0FF0F4FEA400CE6D018BFED
:102EC000BCF17F4F38BF7047EAE79CEA026F05D03C
:102ED00010EA5C0F08BF00F00040704710B500F02A
:102EE000B2F900BF64FBBE3E401058BFC0F1404085
:102EF000491058BFC1F140418142EFF30080704753
:102F00004FF47F0C1CEAD0121EBF1CEAD11392EAC8
:102F10000C0F93EA0C0F00F0858090EA010F48BF78
:102F200042F4807240F4000C41F400002CF07F4128
:102F300020F07F4000B58142A2EB03020FF2081C93
:102F4000ACEB504EC0F100009EF800E04FEA4E0E90
:102F500000FB0EFC38BF49004FEA2C1C02F5FA02B8
:102F60000CFB0EF34FEACE1E4FEA112C4FEAC121A3
:102F70000EEB635E42EB22420EFB0CFC4FEA1C534D
:102F800000FB03114FEA112C4FEA01310EFB0CFC40
:102F90004FEADC4C00FB0C11C14228BF09184CEB76
:102FA00003335DF804EB10EB410143EBC250B2F583
:102FB0007C0F38BF704729D512F0F00F1CBF00F10D
:102FC000C04000F00040704700818283848586877E
:102FD00088898B8C8D8E8F919293959697999A9CD8
:102FE0009D9FA0A2A3A5A7A8AAACAEB0B2B3B5B747
:102FF000B9BCBEC0C2C5C7C9CCCED1D4D7D9DCDF1D
:10300000E2E6E9ECF0F3F7FAFE0000004FEA400CCC
:103010000CF1807CBCF17E4F28BF7047B0F1C040FE
:1030200000F057B990EA010F0CEAD11348BF42F4FF
:103030008072624538BF634507D213F47F0F16D004
:1030400080EA010000F00040704710B500F0FBF886
:10305000097EFC3E00F005B880EA010000F0004067
:10306000704780EA010000F0004000F032B912F42D
:103070007F0F04BF0248704780EA010000F029B9C1
:103080000000C07F10F0004148BF4042B0FA80F31A
:1030900010FA03F2C3F19D030BD051EAC35101EBC7
:1030A0001220530638BF704700F1010008BF20F01E
:1030B00001007047B0FA80F310FA03F2C3F19D03E8
:1030C0000AD0D90501EB1220530638BF704700F132
:1030D000010008BF20F001007047000050EA010C19
:1030E00000F113801CF5000F58BFBCF5000F01D490
:1030F0008842704707D710F5000F58BF11F5000F31
:1031000015D488427047894270471CF5000F04D5DA
:10311000BCF5000FF7D5814270474FF0807C1CEB67
:10312000400F38BF1CEB410F01D28142704710B5F0
:1031300000F089F8922449004FF000504FF0805180
:10314000FFF7D2BE4FF47F0C1CEAD0121EBF1CEA60
:10315000D11392EA0C0F93EA0C0F00F0478090EA2B
:10316000010F48BF42F480724FF0004C4CEA00203F
:103170004CEA012102EB0302A0FB0113A2F50002BD
:10318000002918BF43F001035B0028BF4FEA330357
:1031900042EB22425FEA132C4CEBC2502EBFBCEB39
:1031A000436FB2F57C0F70474FEA036CBCF1004FE0
:1031B00008BF20F00100B2F57C0F38BF70470BD577
:1031C00082F0FF0212F5803FC8BF704700F1C04097
:1031D000D8BF00F00040704700F5000C5FEA4C0CCF
:1031E00048BF7047B0F1C04000F073B890EA010FDB
:1031F0000CEAD11348BF42F48072624538BF634580
:1032000004D280EA010000F00040704710B500F0E1
:103210001AF800BF8900013E00F007B800F009B8B5
:103220005FEA410C5FEA1C6C08D080EA010000F004
:1032300050B85FEA400C5FEA1C6CF6D14FF00040DA
:10324000A0F5800070470EF1020E2EF0030E5EF81E
:10325000044B244204D44FEA4102B2F17F4F11D80B
:103260004FEA4003B3F17F4F0CD80ED14FEAD07C28
:10327000B2F17F4F0CEB4C0C0CF1020C08BF4CEB85
:10328000D17C04E04FF0080C01E04FEAD17C0CEB5C
:103290004C0324FA03F404F00704B4F1040C06D23E
:1032A0000EEB840CBDE810404CF0010C6047DFE8E9
:1032B0000CF0070802024FF00040A0F5800010BD9E
:1032C0000846420018BFD2F1807288BF00F000406B
:1032D00010BDFF2141EAD050C005704751EA000CF3
:1032E00000F113801CF5000F58BFBCF5000F01D48E
:1032F0008142704707D711F5000F58BF10F5000F36
:1033000015D481427047894270471CF5000F04D5DF
:10331000BCF5000FF7D5884270474FF0807C1CEB5E
:10332000410F38BF1CEB400F01D28842704780EA42
:10333000010081EA000180EA0100FFF7F8BE80F099
:10334000004090EA010F7FF574AD81F0004100F07C
:1033500008B8000090EA010F48BF81F000413FF536
:1033600068AD421A04D882F00042A0EB020011447A
:103370004FEAD0524FF07F4C1CEA410FA2EBD153E1
:1033800018BF9CEA026F4AD04FF0004C4CEA002074
:103390004CEA012121FA03FCB0EB0C0C0FD412F023
:1033A000FE0F36D05FEA4C001DD5001240EBC25034
:1033B00038BF70471CF03F0F18BF70470BE0A2F1F9
:1033C00001025FEA1C2040EBC25038BF70471CF07E
:1033D0007F0F18BF7047C3F12003994014BF401EF0
:1033E00020F00100704780084FEA122308BF7047A1
:1033F000B0FA80FCA2EB0C02CCF1280C60FA0CF0C5
:1034000093EA122F04BF00EBC25070474FEAC3701B
:103410007047130A5FEADC1008BF7047F6E79CEAC2
:10342000026F04D010EA5C0F08BF0020704710B58F
:10343000FFF709FF40DFF63E81F0004070470CF0D7
:103440000F03092B08BF082000F059800A2B0BD06E
:10345000082B18BF704708BF1CF0400F0AD04FF070
:1034600000004FF0000170471CF0400F18BF4FF0F4
:10347000004070471CF0100F08D020F0704300F09F
:103480007F4242EAD3014FEA4370704700F0604048
:1034900021F07F4242EA000201F07F4040EA727070
:1034A00070474FF0FF0C4CF4E06C1CEA11531CBF4A
:1034B0009CEA030C9445C2BFDA4201EB025170470B
:1034C000002B0DD0BCF1000F0FD0002A01F00041FD
:1034D000A4BF41F0E04141F07F614FF00000704730
:1034E00001F000414FF00000704750EA01334FF007
:1034F0009B0C18BF4CF0806C7FF48CA870471CF4B8
:10350000801F11D01CF4E02F03D06FEACC314900AA
:1035100070474FF04050EFF3008222F0704242EAD1
:10352000000282F3008870474FF0000070470000EF
:10353000000000000000000000000000000000008B
:1035400000F8000000000000003330000000001010
:103550000C06100C0600000000000000000040C037
:103560007840C0784000043F04043F040400007029
:1035700088FC08300000001820FF211E0000F00821
:10358000F000E018000000211C031E211E0000F0C6
:103590000888700000001E2123241927211010160E
:1035A0000E0000000000000000000000000000000D
:1035B00000E018040200000000071820400000028C
:1035C0000418E00000000040201807000000404000
:1035D00080F0804040000202010F01020200000062
:1035E00000F0000000000101011F010101000000C6
:1035F00000000000000080B070000000000000002B
:1036000000000000000000010101010101010000B3
:10361000000000000000003030000000000000004A
:10362000000080601804006018060100000000E03F
:1036300010080810E000000F102020100F000010EC
:1036400010F8000000000020203F20200000007043
:10365000080808887000003028242221300000303B
:103660000888884830000018202020110E00000033
:10367000C02010F8000000070424243F240000F8B4
:103680000888880808000019212020110E0000E099
:10369000108888180000000F112020110E0000383B
:1036A0000808C83808000000003F00000000007053
:1036B000880808887000001C222121221C0000E0DC
:1036C00010080810E0000000312222110F00000055
:1036D00000C0C0000000000000303000000000000A
:1036E000008000000000000080600000000000007A
:1036F0008040201008000001020408102000404013
:103700004040404040000404040404040400000855
:10371000102040800000002010080402010000700A
:1037200048080808F0000000003036010000C030F2
:10373000C828E810E0000718272423140B00000015
:10374000C038E0000000203C23020227382008F89F
:10375000888888700000203F202020110E00C03093
:10376000080808083800071820202010080008F86A
:1037700008080810E000203F202020100F0008F863
:103780008888E8081000203F20202320180008F82F
:103790008888E8081000203F200003000000C030A7
:1037A00008080838000007182020221E020008F828
:1037B00008000008F808203F210101213F200008EF
:1037C00008F8080800000020203F2020000000002A
:1037D0000808F8080800C08080807F00000008F812
:1037E00088C028180800203F20012638200008F84B
:1037F000080000000000203F20202020300008F8B2
:10380000F800F8F80800203F003F003F200008F8CB
:1038100030C00008F808203F200007183F00E010E3
:1038200008080810E0000F10202020100F0008F8F2
:1038300008080808F000203F210101010000E01005
:1038400008080810E0000F18242438504F0008F82A
:10385000888888887000203F2000030C302000708A
:103860008808080838000038202121221C00180888
:1038700008F8080818000000203F2000000008F8A1
:1038800008000008F808001F202020201F000878EA
:10389000880000C83808000007380E010000F8084A
:1038A00000F80008F800033C0700073C0300081874
:1038B00068808068180820302C03032C30200838DA
:1038C000C800C83808000000203F20000000100891
:1038D0000808C838080020382621202018000000D9
:1038E00000FE020202000000007F40404000000C89
:1038F00030C000000000000000010638C0000002D7
:103900000202FE000000004040407F000000000076
:103910000402020204000000000000000000000099
:103920000000000000008080808080808080000295
:103930000204000000000000000000000000000081
:103940008080808000000019242222223F2008F875
:10395000008080000000003F112020110E000000B8
:10396000008080800000000E112020201100000047
:1039700000808088F800000E112020103F200000F9
:10398000808080800000001F2222222213000080FD
:1039900080F0888888180020203F20200000000048
:1039A000808080808000006B94949493600008F87D
:1039B000008080800000203F210000203F20008008
:1039C0009898000000000020203F20200000000008
:1039D00000809898000000C08080807F000008F878
:1039E000000080808000203F24022D30200000084D
:1039F00008F8000000000020203F20200000808008
:103A0000808080808000203F20003F20003F808019
:103A1000008080800000203F210000203F20000027
:103A2000808080800000001F202020201F008080D8
:103A300000808000000080FFA12020110E00000007
:103A4000008080808000000E112020A0FF808080F8
:103A500080008080800020203F21200001000000A5
:103A6000808080808000003324242424190000807A
:103A700080E0808000000000001F20200000808087
:103A8000000000808000001F202020103F20808048
:103A900080000080808000010E30080601008080D8
:103AA0000080008080800F300C030C300F000080FD
:103AB0008000808080000020312E0E312000808028
:103AC00080000080808080818E7018060100008058
:103AD0008080808080000021302C22213000000076
:103AE0000000807C020200000000003F4040000017
:103AF0000000FF00000000000000FF0000000002C6
:103B0000027C800000000040403F000000000006F2
:103B10000101020204040000000000000000000097
:103B20004FBB610567ACDD3F182D4454FB21E93FD5
:103B30009BF681D20B73EF3F182D4454FB21F93FC4
:103B4000E2652F227F2B7A3C075C143326A6813C4A
:103B5000BDCBF07A8807703C075C143326A6913CF5
:103B6000C4EB98999999C9BF711623FEC671BCBF61
:103B70006D9A74AFF2B0B3BF9AFDDE522DDEADBFC9
:103B80002F6C6A2C44B4A2BF0D5555555555D53FE1
:103B9000FF8300922449C23F6E204CC5CD45B73FFC
:103BA000513DD0A0660DB13FEB0D76244B7BA93F74
:103BB00011DA22E33AAD903F00000000000000005F
:103BC000E03B0008000000208400000028010008FD
:103BD000643C000884000020444D000044010008BB
:103BE00000000000010203040102030406070809A3
:103BF00002040608000000000000000000000000B1
:103C000000000000000000000000000000000000B4
:103C100000000000000000000000000000000000A4
:103C20000000000000000000000000000000000094
:103C3000AAAAAAAA000000000000000000000000DC
:103C40000000000000000000000000000000000074
:103C50000000000000000000000000000000000064
:043C60000000000060
:04000005080000ED02
:00000001FF
